:08000000803102288731FD2F39
:100CA200013023008C0021000C1401309D003030F3
:100CB2009E0008000630890B5C2E003221009D1434
:100CC2009D18642E652E612E1C08F1001B08F00091
:100CD20008006D2E003200320130F0020030F13B8C
:100CE200700A031D782E710A031D782E792E6B2E41
:100CF20008000030FB000030FA000030F90000303C
:100D0200F800701C852E862E8E2E7408F807750842
:100D1200F93D7608FA3D7708FB3D0130F435F50DD3
:100D2200F60DF70D890B8F2E0130F336F20CF10C14
:100D3200F00C890B962E7308720471047004031D63
:100D4200A32EA42E822E7B08F3007A08F2007908E3
:100D5200F1007808F000080021000E1222000E12A5
:100D620086315126863186315B2686317108200014
:100D7200D5007008D4005408AE005508AF00B00189
:100D8200B1010030B5000030B4000030B3000030D3
:100D9200B2000030B9000030B8000330B700FF30B5
:100DA200B6000030BD000030BC000030BB00033094
:100DB200BA000030C1000030C0000030BF00023075
:100DC200BE0087310B27863120002F08D7002E085E
:100DD200D6005708D3005608D200D336D20C520898
:100DE200D8005308D90022000E1620005908F1003D
:100DF2005808F00086316A26863122000E12200041
:100E02005908F1005808F00086316A268631B42E5E
:100E120080310228200032083602C2003308373BF4
:100E2200C3003408383BC4003508393BC5004508C7
:100E3200A3004408A2004308A1004208A00032080F
:100E42002E02C60033082F3BC7003408303BC800CF
:100E52003508313BC9004908F3004808F200470849
:100E6200F1004608F0003A083E02CA003B083F3B48
:100E7200CB003C08403BCC003D08413BCD004D0837
:100E8200F7004C08F6004B08F5004A08F4008631DA
:100E92007A26873173082000A7007208A60071081D
:100EA200A5007008A40087316D2787312000200833
:100EB2003A07CE0021083B3DCF0022083C3DD0003E
:100EC20023083D3DD1005108B1005008B0004F0841
:100ED200AF004E08AE0008002000A901A31F722F28
:100EE200732F802FA009A109A209A309A00A03193F
:100EF200A10A0319A20A0319A30AA901A90AA71F91
:100F0200832F842F932FA409A509A609A709A40A50
:100F12000319A50A0319A60A0319A70A0130FC003E
:100F22007C08A9060030AD000030AC000030AB00F8
:100F32000030AA0023082204210420040319A22F4E
:100F4200A32FE42FA801A80AB12F0130A035A10DCB
:100F5200A20DA30D890BA72F0130FC007C08A80766
:100F6200A31FB42FB52FA62F0130AA35AB0DAC0DA0
:100F7200AD0D890BB62F23082702031DCA2F2208A5
:100F82002602031DCA2F21082502031DCA2F20088D
:100F92002402031CCD2FCE2FD72F2008A402210814
:100FA200A53B2208A63B2308A73B2A140130A336FF
:100FB200A20CA10CA00C890BD82F0130A802031D92
:100FC200E32FE42FB52F29080319E82FE92FF42F77
:100FD200AA09AB09AC09AD09AA0A0319AB0A03199C
:100FE200AC0A0319AD0A2D08A3002C08A2002B0895
:0E0FF200A1002A08A000080020008631AD2EC4
:020000040001F9
:04000E00C439FF1FD3
:00000001FF
